:100000000C9434000C9449000C9449000C94490061
:100010000C9449000C9449000C9449000C9449003C
:100020000C9449000C9449000C9449000C9449002C
:100030000C9449000C9449000C944B000C9449001A
:100040000C9449000C9449000C9449000C9449000C
:100050000C9449000C9449000C9449000C944900FC
:100060000C9449000C94490011241FBECFEFD8E036
:10007000DEBFCDBF11E0A0E0B1E0ECEFF0E002C0E8
:1000800005900D92A230B107D9F70E9473000C942D
:100090007C000C9400001F920F920FB60F92112457
:1000A0008F939F9380910001823028F48F5F80931B
:1000B0000001000007C095B184E0892785B981E07F
:1000C000809300019F918F910F900FBE0F901F9012
:1000D000189582E484BD80E487BD82E080936E0041
:1000E00085E885BD089584E084B98BEF85B90E94C9
:0C00F000690078940000FECFF894FFCF68
:0200FC00010001
:00000001FF
