S0120000554E4F5F626C696E6B312E7372656380
S11300000C9434000C943E000C943E000C943E007E
S11300100C943E000C943E000C943E000C943E0064
S11300200C943E000C943E000C943E000C943E0054
S11300300C943E000C943E000C943E000C943E0044
S11300400C943E000C943E000C943E000C943E0034
S11300500C943E000C943E000C943E000C943E0024
S11300600C943E000C943E0011241FBECFEFD8E048
S1130070DEBFCDBF0E9440000C946F000C940000C2
S1130080259A2D9880E090E056E040E030E270E060
S113009060E010C025B1232725B92FEFE4E3FCE08D
S11300A02150E040F040E1F700C00000019602C09A
S11300B0872F962F863091056CF3852F942F25B1C9
S11300C0232725B92FEFE9E6F8E12150E040F0407D
S11300D0E1F700C000000197009789F7E9CFF89491
S10500E0FFCF4C
S9030000FC
